{
  "address": "0x19d557EF678B989A27e5C490cD252Fe957e74b7C",
  "abi": [
    {
      "inputs": [
        {
          "internalType": "address",
          "name": "_implementation",
          "type": "address"
        }
      ],
      "stateMutability": "nonpayable",
      "type": "constructor"
    },
    {
      "inputs": [],
      "name": "AggregatorAlreadyExists",
      "type": "error"
    },
    {
      "inputs": [],
      "name": "AggregatorNotFound",
      "type": "error"
    },
    {
      "inputs": [],
      "name": "IdenticalTokens",
      "type": "error"
    },
    {
      "inputs": [],
      "name": "NoOracles",
      "type": "error"
    },
    {
      "inputs": [],
      "name": "ReversePairExists",
      "type": "error"
    },
    {
      "inputs": [],
      "name": "SameOwner",
      "type": "error"
    },
    {
      "inputs": [],
      "name": "ZeroAddress",
      "type": "error"
    },
    {
      "inputs": [],
      "name": "ZeroImplementation",
      "type": "error"
    },
    {
      "anonymous": false,
      "inputs": [
        {
          "indexed": true,
          "internalType": "address",
          "name": "base",
          "type": "address"
        },
        {
          "indexed": true,
          "internalType": "address",
          "name": "quote",
          "type": "address"
        },
        {
          "indexed": false,
          "internalType": "address",
          "name": "aggregator",
          "type": "address"
        }
      ],
      "name": "AggregatorCreated",
      "type": "event"
    },
    {
      "anonymous": false,
      "inputs": [
        {
          "indexed": true,
          "internalType": "address",
          "name": "base",
          "type": "address"
        },
        {
          "indexed": true,
          "internalType": "address",
          "name": "quote",
          "type": "address"
        },
        {
          "indexed": false,
          "internalType": "string",
          "name": "reason",
          "type": "string"
        }
      ],
      "name": "AggregatorCreationSkipped",
      "type": "event"
    },
    {
      "anonymous": false,
      "inputs": [
        {
          "indexed": true,
          "internalType": "address",
          "name": "base",
          "type": "address"
        },
        {
          "indexed": true,
          "internalType": "address",
          "name": "quote",
          "type": "address"
        },
        {
          "indexed": false,
          "internalType": "address",
          "name": "newOwner",
          "type": "address"
        }
      ],
      "name": "AggregatorOwnershipTransferred",
      "type": "event"
    },
    {
      "anonymous": false,
      "inputs": [
        {
          "indexed": true,
          "internalType": "address",
          "name": "base",
          "type": "address"
        },
        {
          "indexed": true,
          "internalType": "address",
          "name": "quote",
          "type": "address"
        }
      ],
      "name": "AggregatorRemoved",
      "type": "event"
    },
    {
      "anonymous": false,
      "inputs": [
        {
          "indexed": true,
          "internalType": "address",
          "name": "base",
          "type": "address"
        },
        {
          "indexed": true,
          "internalType": "address",
          "name": "quote",
          "type": "address"
        },
        {
          "indexed": false,
          "internalType": "uint256",
          "name": "maxDeviationBps",
          "type": "uint256"
        }
      ],
      "name": "MaxDeviationUpdated",
      "type": "event"
    },
    {
      "anonymous": false,
      "inputs": [
        {
          "indexed": true,
          "internalType": "address",
          "name": "previousOwner",
          "type": "address"
        },
        {
          "indexed": true,
          "internalType": "address",
          "name": "newOwner",
          "type": "address"
        }
      ],
      "name": "OwnershipTransferred",
      "type": "event"
    },
    {
      "anonymous": false,
      "inputs": [
        {
          "indexed": true,
          "internalType": "address",
          "name": "caller",
          "type": "address"
        },
        {
          "indexed": true,
          "internalType": "address",
          "name": "base",
          "type": "address"
        },
        {
          "indexed": true,
          "internalType": "address",
          "name": "quote",
          "type": "address"
        },
        {
          "indexed": false,
          "internalType": "uint256",
          "name": "inAmount",
          "type": "uint256"
        },
        {
          "indexed": false,
          "internalType": "string",
          "name": "method",
          "type": "string"
        }
      ],
      "name": "QuoteRequested",
      "type": "event"
    },
    {
      "inputs": [],
      "name": "aggregatorImplementation",
      "outputs": [
        {
          "internalType": "address",
          "name": "",
          "type": "address"
        }
      ],
      "stateMutability": "view",
      "type": "function"
    },
    {
      "inputs": [
        {
          "internalType": "address",
          "name": "base",
          "type": "address"
        },
        {
          "internalType": "address",
          "name": "quote",
          "type": "address"
        },
        {
          "internalType": "address[]",
          "name": "oracles",
          "type": "address[]"
        },
        {
          "internalType": "uint256",
          "name": "maxDeviationBps",
          "type": "uint256"
        }
      ],
      "name": "createAggregator",
      "outputs": [
        {
          "internalType": "address",
          "name": "aggregator",
          "type": "address"
        }
      ],
      "stateMutability": "nonpayable",
      "type": "function"
    },
    {
      "inputs": [
        {
          "internalType": "address",
          "name": "base",
          "type": "address"
        },
        {
          "internalType": "address",
          "name": "quote",
          "type": "address"
        }
      ],
      "name": "existsAggregator",
      "outputs": [
        {
          "internalType": "bool",
          "name": "",
          "type": "bool"
        }
      ],
      "stateMutability": "view",
      "type": "function"
    },
    {
      "inputs": [
        {
          "internalType": "address",
          "name": "base",
          "type": "address"
        },
        {
          "internalType": "address",
          "name": "quote",
          "type": "address"
        }
      ],
      "name": "getAggregator",
      "outputs": [
        {
          "internalType": "address",
          "name": "",
          "type": "address"
        }
      ],
      "stateMutability": "view",
      "type": "function"
    },
    {
      "inputs": [],
      "name": "owner",
      "outputs": [
        {
          "internalType": "address",
          "name": "",
          "type": "address"
        }
      ],
      "stateMutability": "view",
      "type": "function"
    },
    {
      "inputs": [
        {
          "internalType": "address",
          "name": "base",
          "type": "address"
        },
        {
          "internalType": "address",
          "name": "quote",
          "type": "address"
        },
        {
          "internalType": "uint256",
          "name": "inAmount",
          "type": "uint256"
        },
        {
          "internalType": "bool",
          "name": "useMedian",
          "type": "bool"
        }
      ],
      "name": "quoteViaFactory",
      "outputs": [
        {
          "internalType": "uint256",
          "name": "quoteAmount",
          "type": "uint256"
        }
      ],
      "stateMutability": "nonpayable",
      "type": "function"
    },
    {
      "inputs": [
        {
          "internalType": "address",
          "name": "base",
          "type": "address"
        },
        {
          "internalType": "address",
          "name": "quote",
          "type": "address"
        }
      ],
      "name": "removeAggregator",
      "outputs": [],
      "stateMutability": "nonpayable",
      "type": "function"
    },
    {
      "inputs": [
        {
          "internalType": "address",
          "name": "base",
          "type": "address"
        },
        {
          "internalType": "address",
          "name": "quote",
          "type": "address"
        },
        {
          "internalType": "address",
          "name": "newOwner",
          "type": "address"
        }
      ],
      "name": "transferAggregatorOwnership",
      "outputs": [],
      "stateMutability": "nonpayable",
      "type": "function"
    },
    {
      "inputs": [
        {
          "internalType": "address",
          "name": "newOwner",
          "type": "address"
        }
      ],
      "name": "transferOwnership",
      "outputs": [],
      "stateMutability": "nonpayable",
      "type": "function"
    }
  ],
  "transactionHash": "0xa81ba16a6a962a70eaa45e8db16285b04e29661748ff56f5b4ec986364e30d96",
  "args": [
    "0xE7fD65F31f6daB86593A89113a240827e561F574"
  ],
  "numDeployments": 1,
  "solcInputHash": "d4afba9f945680c4bdd2a263195f07fc",
  "bytecode": "0x60a060405234801561000f575f5ffd5b5060405161129a38038061129a83398101604081905261002e916100a6565b6001600160a01b03811661005557604051634208d2eb60e01b815260040160405180910390fd5b6001600160a01b0381166080525f80546001600160a01b0319163390811782556040519091907f8be0079c531659141344cd1fd0a4f28419497f9722a3daafe3b4186f6b6457e0908290a3506100d3565b5f602082840312156100b6575f5ffd5b81516001600160a01b03811681146100cc575f5ffd5b9392505050565b6080516111a86100f25f395f8181610139015261057901526111a85ff3fe608060405234801561000f575f5ffd5b5060043610610090575f3560e01c8063a464597311610063578063a464597314610134578063a8c17b9f1461015b578063bc9511a41461017c578063f2fde38b146101b3578063f4a14980146101c6575f5ffd5b80630367a6471461009457806311a84347146100e257806355959bca146100f75780638da5cb5b14610122575b5f5ffd5b6100cd6100a2366004610b6f565b6001600160a01b039182165f9081526001602090815260408083209385168352929052205416151590565b60405190151581526020015b60405180910390f35b6100f56100f0366004610ba0565b6101d9565b005b61010a610105366004610be0565b610317565b6040516001600160a01b0390911681526020016100d9565b5f5461010a906001600160a01b031681565b61010a7f000000000000000000000000000000000000000000000000000000000000000081565b61016e610169366004610c74565b6107ad565b6040519081526020016100d9565b61010a61018a366004610b6f565b6001600160a01b039182165f908152600160209081526040808320938516835292905220541690565b6100f56101c1366004610cc4565b6109a2565b6100f56101d4366004610b6f565b610a79565b5f546001600160a01b0316331461020b5760405162461bcd60e51b815260040161020290610ce4565b60405180910390fd5b6001600160a01b038084165f9081526001602090815260408083208685168452909152902054168061025057604051631db6335b60e21b815260040160405180910390fd5b6001600160a01b0382166102775760405163d92e233d60e01b815260040160405180910390fd5b60405163f2fde38b60e01b81526001600160a01b03838116600483015282169063f2fde38b906024015f604051808303815f87803b1580156102b7575f5ffd5b505af11580156102c9573d5f5f3e3d5ffd5b50506040516001600160a01b0385811682528087169350871691507f8218f4ef49cbf500e859c4e215191c2a941a33fc3064f7aba4a2c8ada89eb21c9060200160405180910390a350505050565b5f80546001600160a01b031633146103415760405162461bcd60e51b815260040161020290610ce4565b6001600160a01b038616158061035e57506001600160a01b038516155b1561037c5760405163d92e233d60e01b815260040160405180910390fd5b846001600160a01b0316866001600160a01b0316036103ae57604051635c6d7b7360e01b815260040160405180910390fd5b6001600160a01b038681165f9081526001602090815260408083208985168452909152902054161561045f57846001600160a01b0316866001600160a01b03167fb6914d85601cbf1d43c197fb33d7eb689ff36eb0301d799ae3ca8357b4ef49dd60405161043e906020808252600e908201526d616c72656164792065786973747360901b604082015260600190565b60405180910390a360405163a8bc506b60e01b815260040160405180910390fd5b6001600160a01b038581165f9081526001602090815260408083208a85168452909152902054161561051557846001600160a01b0316866001600160a01b03167fb6914d85601cbf1d43c197fb33d7eb689ff36eb0301d799ae3ca8357b4ef49dd6040516104f4906020808252601390820152727265766572736520706169722065786973747360681b604082015260600190565b60405180910390a36040516305e80a5560e41b815260040160405180910390fd5b5f83900361053657604051630d1c3ffd60e01b815260040160405180910390fd5b60408051306024820152604480820185905282518083039091018152606490910182526020810180516001600160e01b031663cd6dc68760e01b17905290515f907f00000000000000000000000000000000000000000000000000000000000000009083906105a490610b47565b6105af929190610d35565b604051809103905ff0801580156105c8573d5f5f3e3d5ffd5b506001600160a01b038981165f9081526001602090815260408083208c85168452909152812080546001600160a01b0319169284169290921790915590915081905b868110156106ba57816001600160a01b0316637c74cb348b8b8b8b8681811061063557610635610d60565b905060200201602081019061064a9190610cc4565b60405160e085901b6001600160e01b03191681526001600160a01b039384166004820152918316602483015290911660448201526064015f604051808303815f87803b158015610698575f5ffd5b505af11580156106aa573d5f5f3e3d5ffd5b50506001909201915061060a9050565b5060405163201a390b60e21b8152600481018690526001600160a01b03821690638068e42c906024015f604051808303815f87803b1580156106fa575f5ffd5b505af115801561070c573d5f5f3e3d5ffd5b50506040516001600160a01b038481168252808c1693508c1691507fa892289d10ded4fc3aa542920b198e2441a13f12168d8a562ebfbf3eee16293a9060200160405180910390a3876001600160a01b0316896001600160a01b03167fd73114dfbd874ab28dae0d315a1da4945ea3857f3c1e81bd4740b7c727916cc68760405161079991815260200190565b60405180910390a398975050505050505050565b6001600160a01b038085165f9081526001602090815260408083208785168452909152812054909116806107f457604051631db6335b60e21b815260040160405180910390fd5b5f8361081f57604051806040016040528060078152602001666176657261676560c81b81525061083f565b6040518060400160405280600681526020016536b2b234b0b760d11b8152505b9050856001600160a01b0316876001600160a01b0316336001600160a01b03167f955b68c4732b1f8fe098ee0ff871a5ed8ce2b4ddbc97ffecb368d29d0043e6048885604051610890929190610d74565b60405180910390a4831561091d57604051630753d08960e11b8152600481018690526001600160a01b0388811660248301528781166044830152831690630ea7a112906064016020604051808303815f875af11580156108f2573d5f5f3e3d5ffd5b505050506040513d601f19601f820116820180604052508101906109169190610d8c565b9250610998565b60405163365b9de360e11b8152600481018690526001600160a01b0388811660248301528781166044830152831690636cb73bc6906064016020604051808303815f875af1158015610971573d5f5f3e3d5ffd5b505050506040513d601f19601f820116820180604052508101906109959190610d8c565b92505b5050949350505050565b5f546001600160a01b031633146109cb5760405162461bcd60e51b815260040161020290610ce4565b6001600160a01b0381166109f25760405163d92e233d60e01b815260040160405180910390fd5b5f546001600160a01b0390811690821603610a2057604051630a98f1f360e21b815260040160405180910390fd5b5f80546040516001600160a01b03808516939216917f8be0079c531659141344cd1fd0a4f28419497f9722a3daafe3b4186f6b6457e091a35f80546001600160a01b0319166001600160a01b0392909216919091179055565b5f546001600160a01b03163314610aa25760405162461bcd60e51b815260040161020290610ce4565b6001600160a01b038083165f90815260016020908152604080832085851684529091529020541680610ae757604051631db6335b60e21b815260040160405180910390fd5b6001600160a01b038084165f8181526001602090815260408083209487168084529490915280822080546001600160a01b0319169055517f7c1eef80e148cc5d7cff87f7f44e7427da8a0147543936730af0a5e447c4bc0d9190a3505050565b6103cf80610da483390190565b80356001600160a01b0381168114610b6a575f5ffd5b919050565b5f5f60408385031215610b80575f5ffd5b610b8983610b54565b9150610b9760208401610b54565b90509250929050565b5f5f5f60608486031215610bb2575f5ffd5b610bbb84610b54565b9250610bc960208501610b54565b9150610bd760408501610b54565b90509250925092565b5f5f5f5f5f60808688031215610bf4575f5ffd5b610bfd86610b54565b9450610c0b60208701610b54565b9350604086013567ffffffffffffffff811115610c26575f5ffd5b8601601f81018813610c36575f5ffd5b803567ffffffffffffffff811115610c4c575f5ffd5b8860208260051b8401011115610c60575f5ffd5b959894975060200195606001359392505050565b5f5f5f5f60808587031215610c87575f5ffd5b610c9085610b54565b9350610c9e60208601610b54565b92506040850135915060608501358015158114610cb9575f5ffd5b939692955090935050565b5f60208284031215610cd4575f5ffd5b610cdd82610b54565b9392505050565b6020808252600990820152683737ba1037bbb732b960b91b604082015260600190565b5f81518084528060208401602086015e5f602082860101526020601f19601f83011685010191505092915050565b6001600160a01b03831681526040602082018190525f90610d5890830184610d07565b949350505050565b634e487b7160e01b5f52603260045260245ffd5b828152604060208201525f610d586040830184610d07565b5f60208284031215610d9c575f5ffd5b505191905056fe60806040526040516103cf3803806103cf8339810160408190526100229161023b565b61002c8282610033565b5050610320565b61003c82610091565b6040516001600160a01b038316907fbc7cd75a20ee27fd9adebab32041f755214dbc6bffa90cc0225b39da2e5c2d3b905f90a280511561008557610080828261010c565b505050565b61008d61017f565b5050565b806001600160a01b03163b5f036100cb57604051634c9c8ce360e01b81526001600160a01b03821660048201526024015b60405180910390fd5b7f360894a13ba1a3210667c828492db98dca3e2076cc3735a920a3ca505d382bbc80546001600160a01b0319166001600160a01b0392909216919091179055565b60605f5f846001600160a01b031684604051610128919061030a565b5f60405180830381855af49150503d805f8114610160576040519150601f19603f3d011682016040523d82523d5f602084013e610165565b606091505b5090925090506101768583836101a0565b95945050505050565b341561019e5760405163b398979f60e01b815260040160405180910390fd5b565b6060826101b5576101b0826101ff565b6101f8565b81511580156101cc57506001600160a01b0384163b155b156101f557604051639996b31560e01b81526001600160a01b03851660048201526024016100c2565b50805b9392505050565b80511561020e57805160208201fd5b60405163d6bda27560e01b815260040160405180910390fd5b634e487b7160e01b5f52604160045260245ffd5b5f5f6040838503121561024c575f5ffd5b82516001600160a01b0381168114610262575f5ffd5b60208401519092506001600160401b0381111561027d575f5ffd5b8301601f8101851361028d575f5ffd5b80516001600160401b038111156102a6576102a6610227565b604051601f8201601f19908116603f011681016001600160401b03811182821017156102d4576102d4610227565b6040528181528282016020018710156102eb575f5ffd5b8160208401602083015e5f602083830101528093505050509250929050565b5f82518060208501845e5f920191825250919050565b60a38061032c5f395ff3fe6080604052600a600c565b005b60186014601a565b6050565b565b5f604b7f360894a13ba1a3210667c828492db98dca3e2076cc3735a920a3ca505d382bbc546001600160a01b031690565b905090565b365f5f375f5f365f845af43d5f5f3e8080156069573d5ff35b3d5ffdfea2646970667358221220c7bca4e79b9378823cffe128806c3c4d6b886949334b51263538e82b09bddbfe64736f6c634300081d0033a2646970667358221220860daa1693996fe2b9816c107c34b3dad72e77c60f26ff891bdbd1d12519f33664736f6c634300081d0033",
  "devdoc": {
    "author": "edsphinx",
    "details": "Designed for compatibility with MultiOracleAggregator and oracle adapters conforming to IPriceOracle.",
    "events": {
      "AggregatorCreated(address,address,address)": {
        "params": {
          "aggregator": "Address of the deployed aggregator",
          "base": "Address of the base token",
          "quote": "Address of the quote token"
        }
      },
      "AggregatorCreationSkipped(address,address,string)": {
        "params": {
          "base": "Address of the base token",
          "quote": "Address of the quote token",
          "reason": "Reason for skipping"
        }
      },
      "AggregatorOwnershipTransferred(address,address,address)": {
        "params": {
          "base": "Address of the base token",
          "newOwner": "New owner address",
          "quote": "Address of the quote token"
        }
      },
      "AggregatorRemoved(address,address)": {
        "params": {
          "base": "Address of the base token",
          "quote": "Address of the quote token"
        }
      },
      "MaxDeviationUpdated(address,address,uint256)": {
        "params": {
          "base": "Address of the base token",
          "maxDeviationBps": "Maximum allowed deviation between oracles (in basis points)",
          "quote": "Address of the quote token"
        }
      },
      "OwnershipTransferred(address,address)": {
        "params": {
          "newOwner": "New owner address",
          "previousOwner": "Previous owner address"
        }
      },
      "QuoteRequested(address,address,address,uint256,string)": {
        "params": {
          "base": "Address of the base token",
          "caller": "Address of the caller",
          "inAmount": "Amount of base token being priced",
          "method": "Method used to make the request",
          "quote": "Address of the quote token"
        }
      }
    },
    "kind": "dev",
    "methods": {
      "constructor": {
        "details": "Sets the deployer as the owner",
        "params": {
          "_implementation": "Address of the MultiOracleAggregator implementation contract"
        }
      },
      "createAggregator(address,address,address[],uint256)": {
        "custom:access": "Only callable by owner",
        "details": "Reverts if an aggregator already exists for the pairSlither reentrancy warning is a false positive: `new` creates a contract at a      deterministic address and executes synchronously, not a reentrancy vector.",
        "params": {
          "base": "Address of the base token (e.g., ETH)",
          "maxDeviationBps": "Maximum allowed deviation between oracles (in basis points)",
          "oracles": "List of IPriceOracle-compatible addresses to register",
          "quote": "Address of the quote token (e.g., USDC)"
        },
        "returns": {
          "aggregator": "Address of the deployed MultiOracleAggregator"
        }
      },
      "existsAggregator(address,address)": {
        "params": {
          "base": "Address of the base token",
          "quote": "Address of the quote token"
        },
        "returns": {
          "_0": "True if an aggregator exists, false otherwise"
        }
      },
      "getAggregator(address,address)": {
        "params": {
          "base": "Address of the base token",
          "quote": "Address of the quote token"
        },
        "returns": {
          "_0": "Address of the registered aggregator, or zero if none exists"
        }
      },
      "quoteViaFactory(address,address,uint256,bool)": {
        "params": {
          "base": "Address of the base token",
          "inAmount": "Amount of base token to quote",
          "quote": "Address of the quote token",
          "useMedian": "If true, uses median; otherwise, uses average"
        },
        "returns": {
          "quoteAmount": "Estimated amount of quote token"
        }
      },
      "removeAggregator(address,address)": {
        "custom:access": "Only callable by owner",
        "details": "Reverts if no aggregator is found",
        "params": {
          "base": "Address of the base token",
          "quote": "Address of the quote token"
        }
      },
      "transferAggregatorOwnership(address,address,address)": {
        "custom:access": "Only callable by owner",
        "details": "Reverts if no aggregator is found or if the new owner is zero",
        "params": {
          "base": "Address of the base token",
          "newOwner": "New owner address",
          "quote": "Address of the quote token"
        }
      },
      "transferOwnership(address)": {
        "custom:access": "Only callable by owner",
        "details": "Reverts if the new owner is zero or same as current",
        "params": {
          "newOwner": "New owner address"
        }
      }
    },
    "title": "AggregatorFactory",
    "version": 1
  },
  "userdoc": {
    "events": {
      "AggregatorCreated(address,address,address)": {
        "notice": "Emitted when a new aggregator is deployed"
      },
      "AggregatorCreationSkipped(address,address,string)": {
        "notice": "Emitted when an aggregator creation is skipped"
      },
      "AggregatorOwnershipTransferred(address,address,address)": {
        "notice": "Emitted when the ownership of an aggregator is transferred to a new address"
      },
      "AggregatorRemoved(address,address)": {
        "notice": "Emitted when an aggregator is removed"
      },
      "MaxDeviationUpdated(address,address,uint256)": {
        "notice": "Emitted when the max deviation for an aggregator is updated"
      },
      "OwnershipTransferred(address,address)": {
        "notice": "Emitted when the ownership of the contract is transferred to a new address"
      },
      "QuoteRequested(address,address,address,uint256,string)": {
        "notice": "Emitted when a quote request is made"
      }
    },
    "kind": "user",
    "methods": {
      "aggregatorImplementation()": {
        "notice": "Address of the previously deployed logic contract"
      },
      "constructor": {
        "notice": "Deploys the factory contract"
      },
      "createAggregator(address,address,address[],uint256)": {
        "notice": "Deploys and initializes a MultiOracleAggregator for a given asset pair"
      },
      "existsAggregator(address,address)": {
        "notice": "Returns true if an aggregator exists for a given asset pair         and false otherwise"
      },
      "getAggregator(address,address)": {
        "notice": "Returns the address of the aggregator for a given asset pair"
      },
      "owner()": {
        "notice": "Owner address with permissions to create and remove aggregators"
      },
      "quoteViaFactory(address,address,uint256,bool)": {
        "notice": "Returns a quote from the registered aggregator using selected method."
      },
      "removeAggregator(address,address)": {
        "notice": "Removes an existing aggregator for a given pair"
      },
      "transferAggregatorOwnership(address,address,address)": {
        "notice": "Transfers the ownership of an aggregator to a new address"
      },
      "transferOwnership(address)": {
        "notice": "Transfers the ownership of the contract to a new address"
      }
    },
    "notice": "Deploys and manages MultiOracleAggregator contracts per asset pair.         Each (base, quote) pair gets its own aggregator instance.",
    "version": 1
  },
  "storageLayout": {
    "storage": [
      {
        "astId": 19452,
        "contract": "contracts/factories/AggregatorFactory.sol:AggregatorFactory",
        "label": "owner",
        "offset": 0,
        "slot": "0",
        "type": "t_address"
      },
      {
        "astId": 19462,
        "contract": "contracts/factories/AggregatorFactory.sol:AggregatorFactory",
        "label": "_aggregators",
        "offset": 0,
        "slot": "1",
        "type": "t_mapping(t_address,t_mapping(t_address,t_address))"
      }
    ],
    "types": {
      "t_address": {
        "encoding": "inplace",
        "label": "address",
        "numberOfBytes": "20"
      },
      "t_mapping(t_address,t_address)": {
        "encoding": "mapping",
        "key": "t_address",
        "label": "mapping(address => address)",
        "numberOfBytes": "32",
        "value": "t_address"
      },
      "t_mapping(t_address,t_mapping(t_address,t_address))": {
        "encoding": "mapping",
        "key": "t_address",
        "label": "mapping(address => mapping(address => address))",
        "numberOfBytes": "32",
        "value": "t_mapping(t_address,t_address)"
      }
    }
  }
}