{
  "address": "0xCe103b17520718B31074D64c59579B056d21e92B",
  "abi": [
    {
      "inputs": [
        {
          "internalType": "address",
          "name": "_aggregator",
          "type": "address"
        },
        {
          "internalType": "address",
          "name": "_diaOracle",
          "type": "address"
        }
      ],
      "stateMutability": "nonpayable",
      "type": "constructor"
    },
    {
      "inputs": [],
      "name": "ZeroAddress",
      "type": "error"
    },
    {
      "inputs": [],
      "name": "ZeroKey",
      "type": "error"
    },
    {
      "anonymous": false,
      "inputs": [
        {
          "indexed": true,
          "internalType": "address",
          "name": "adapter",
          "type": "address"
        },
        {
          "indexed": true,
          "internalType": "address",
          "name": "base",
          "type": "address"
        },
        {
          "indexed": true,
          "internalType": "address",
          "name": "quote",
          "type": "address"
        },
        {
          "indexed": false,
          "internalType": "string",
          "name": "key",
          "type": "string"
        }
      ],
      "name": "AdapterCreated",
      "type": "event"
    },
    {
      "inputs": [],
      "name": "aggregator",
      "outputs": [
        {
          "internalType": "address",
          "name": "",
          "type": "address"
        }
      ],
      "stateMutability": "view",
      "type": "function"
    },
    {
      "inputs": [
        {
          "internalType": "address",
          "name": "base",
          "type": "address"
        },
        {
          "internalType": "address",
          "name": "quote",
          "type": "address"
        },
        {
          "internalType": "string",
          "name": "key",
          "type": "string"
        }
      ],
      "name": "deployAdapter",
      "outputs": [
        {
          "internalType": "address",
          "name": "",
          "type": "address"
        }
      ],
      "stateMutability": "nonpayable",
      "type": "function"
    },
    {
      "inputs": [],
      "name": "dia",
      "outputs": [
        {
          "internalType": "address",
          "name": "",
          "type": "address"
        }
      ],
      "stateMutability": "view",
      "type": "function"
    },
    {
      "inputs": [],
      "name": "owner",
      "outputs": [
        {
          "internalType": "address",
          "name": "",
          "type": "address"
        }
      ],
      "stateMutability": "view",
      "type": "function"
    }
  ],
  "transactionHash": "0xdfc9c47ab4e46a1bfb54ec86e15c8a56704fa5cfdeaafc8f2258854a7ff0bf71",
  "args": [
    "0xb609E4A123636B1aC20f7B67652537132efBDa8C",
    "0x05eD1f0c33E2a2D257007C0184dC00020C0cbE68"
  ],
  "numDeployments": 1,
  "solcInputHash": "d4afba9f945680c4bdd2a263195f07fc",
  "bytecode": "0x60e060405234801561000f575f5ffd5b5060405161113638038061113683398101604081905261002e916100b2565b6001600160a01b0382166100555760405163d92e233d60e01b815260040160405180910390fd5b6001600160a01b03811661007c5760405163d92e233d60e01b815260040160405180910390fd5b6001600160a01b039182166080521660a0523360c0526100e3565b80516001600160a01b03811681146100ad575f5ffd5b919050565b5f5f604083850312156100c3575f5ffd5b6100cc83610097565b91506100da60208401610097565b90509250929050565b60805160a05160c05161101f6101175f395f81816096015260f901525f818160bd01526101b501525f6053015261101f5ff3fe608060405234801561000f575f5ffd5b506004361061004a575f3560e01c8063245a7bfc1461004e5780638da5cb5b14610091578063c77e3e98146100b8578063d5d81844146100df575b5f5ffd5b6100757f000000000000000000000000000000000000000000000000000000000000000081565b6040516001600160a01b03909116815260200160405180910390f35b6100757f000000000000000000000000000000000000000000000000000000000000000081565b6100757f000000000000000000000000000000000000000000000000000000000000000081565b6100756100ed366004610296565b5f336001600160a01b037f000000000000000000000000000000000000000000000000000000000000000016146101565760405162461bcd60e51b81526020600482015260096024820152683737ba1037bbb732b960b91b604482015260640160405180910390fd5b6001600160a01b038516158061017357506001600160a01b038416155b156101915760405163d92e233d60e01b815260040160405180910390fd5b5f8290036101b257604051637dec24e360e11b815260040160405180910390fd5b5f7f0000000000000000000000000000000000000000000000000000000000000000868686866040516101e49061026e565b6101f2959493929190610348565b604051809103905ff08015801561020b573d5f5f3e3d5ffd5b509050846001600160a01b0316866001600160a01b0316826001600160a01b03167f8183c3291305befbb8a94ad6a39bc94f704c6af80f5ad7421a119984cb9d359e878760405161025d929190610387565b60405180910390a495945050505050565b610c47806103a383390190565b80356001600160a01b0381168114610291575f5ffd5b919050565b5f5f5f5f606085870312156102a9575f5ffd5b6102b28561027b565b93506102c06020860161027b565b9250604085013567ffffffffffffffff8111156102db575f5ffd5b8501601f810187136102eb575f5ffd5b803567ffffffffffffffff811115610301575f5ffd5b876020828401011115610312575f5ffd5b949793965060200194505050565b81835281816020850137505f828201602090810191909152601f909101601f19169091010190565b6001600160a01b0386811682528581166020830152841660408201526080606082018190525f9061037c9083018486610320565b979650505050505050565b602081525f61039a602083018486610320565b94935050505056fe60c060405234801561000f575f5ffd5b50604051610c47380380610c4783398101604081905261002e9161014a565b6001600160a01b0384166100555760405163d92e233d60e01b815260040160405180910390fd5b6001600160a01b038316158061007257506001600160a01b038216155b156100905760405163d92e233d60e01b815260040160405180910390fd5b6001600160a01b038085166080523360a0528381165f908152602081815260408083209386168352929052206100c682826102b0565b50816001600160a01b0316836001600160a01b03167f84ddcb4a0f93e4ba6035daa8e5e436c17e27c6e75de27658b1066f0ebfb401dc8360405161010a919061036a565b60405180910390a35050505061039f565b80516001600160a01b0381168114610131575f5ffd5b919050565b634e487b7160e01b5f52604160045260245ffd5b5f5f5f5f6080858703121561015d575f5ffd5b6101668561011b565b93506101746020860161011b565b92506101826040860161011b565b60608601519092506001600160401b0381111561019d575f5ffd5b8501601f810187136101ad575f5ffd5b80516001600160401b038111156101c6576101c6610136565b604051601f8201601f19908116603f011681016001600160401b03811182821017156101f4576101f4610136565b60405281815282820160200189101561020b575f5ffd5b8160208401602083015e5f6020838301015280935050505092959194509250565b600181811c9082168061024057607f821691505b60208210810361025e57634e487b7160e01b5f52602260045260245ffd5b50919050565b601f8211156102ab57805f5260205f20601f840160051c810160208510156102895750805b601f840160051c820191505b818110156102a8575f8155600101610295565b50505b505050565b81516001600160401b038111156102c9576102c9610136565b6102dd816102d7845461022c565b84610264565b6020601f82116001811461030f575f83156102f85750848201515b5f19600385901b1c1916600184901b1784556102a8565b5f84815260208120601f198516915b8281101561033e578785015182556020948501946001909201910161031e565b508482101561035b57868401515f19600387901b60f8161c191681555b50505050600190811b01905550565b602081525f82518060208401528060208501604085015e5f604082850101526040601f19601f83011684010191505092915050565b60805160a05161087b6103cc5f395f8181605e015261012501525f818160f801526103ae015261087b5ff3fe608060405234801561000f575f5ffd5b5060043610610055575f3560e01c80638da5cb5b146100595780639c0dc9801461009d578063a3dec31d146100b2578063ae68676c146100d2578063c77e3e98146100f3575b5f5ffd5b6100807f000000000000000000000000000000000000000000000000000000000000000081565b6040516001600160a01b0390911681526020015b60405180910390f35b6100b06100ab3660046104f3565b61011a565b005b6100c56100c03660046105c6565b61023a565b60405161009491906105f7565b6100e56100e036600461062c565b6102d9565b604051908152602001610094565b6100807f000000000000000000000000000000000000000000000000000000000000000081565b336001600160a01b037f000000000000000000000000000000000000000000000000000000000000000016146101825760405162461bcd60e51b81526020600482015260096024820152683737ba1037bbb732b960b91b604482015260640160405180910390fd5b6001600160a01b038316158061019f57506001600160a01b038216155b156101bd5760405163d92e233d60e01b815260040160405180910390fd5b6001600160a01b038084165f908152602081815260408083209386168352929052206101e982826106e9565b50816001600160a01b0316836001600160a01b03167f84ddcb4a0f93e4ba6035daa8e5e436c17e27c6e75de27658b1066f0ebfb401dc8360405161022d91906105f7565b60405180910390a3505050565b5f6020818152928152604080822090935290815220805461025a90610665565b80601f016020809104026020016040519081016040528092919081815260200182805461028690610665565b80156102d15780601f106102a8576101008083540402835291602001916102d1565b820191905f5260205f20905b8154815290600101906020018083116102b457829003601f168201915b505050505081565b6001600160a01b038083165f908152602081815260408083209385168352929052908120805482919061030b90610665565b80601f016020809104026020016040519081016040528092919081815260200182805461033790610665565b80156103825780601f1061035957610100808354040283529160200191610382565b820191905f5260205f20905b81548152906001019060200180831161036557829003601f168201915b5050505050905080515f036103aa5760405163d51d9b2f60e01b815260040160405180910390fd5b5f5f7f00000000000000000000000000000000000000000000000000000000000000006001600160a01b031663960384a0846040518263ffffffff1660e01b81526004016103f891906105f7565b6040805180830381865afa158015610412573d5f5f3e3d5ffd5b505050506040513d601f19601f8201168201806040525081019061043691906107ba565b91509150816001600160801b03165f0361046357604051634dfba02360e01b815260040160405180910390fd5b610e106104796001600160801b038316426107f6565b1061049757604051630cd5fa0760e11b815260040160405180910390fd5b6305f5e1006104af886001600160801b03851661080f565b6104b99190610826565b979650505050505050565b80356001600160a01b03811681146104da575f5ffd5b919050565b634e487b7160e01b5f52604160045260245ffd5b5f5f5f60608486031215610505575f5ffd5b61050e846104c4565b925061051c602085016104c4565b9150604084013567ffffffffffffffff811115610537575f5ffd5b8401601f81018613610547575f5ffd5b803567ffffffffffffffff811115610561576105616104df565b604051601f8201601f19908116603f0116810167ffffffffffffffff81118282101715610590576105906104df565b6040528181528282016020018810156105a7575f5ffd5b816020840160208301375f602083830101528093505050509250925092565b5f5f604083850312156105d7575f5ffd5b6105e0836104c4565b91506105ee602084016104c4565b90509250929050565b602081525f82518060208401528060208501604085015e5f604082850101526040601f19601f83011684010191505092915050565b5f5f5f6060848603121561063e575f5ffd5b8335925061064e602085016104c4565b915061065c604085016104c4565b90509250925092565b600181811c9082168061067957607f821691505b60208210810361069757634e487b7160e01b5f52602260045260245ffd5b50919050565b601f8211156106e457805f5260205f20601f840160051c810160208510156106c25750805b601f840160051c820191505b818110156106e1575f81556001016106ce565b50505b505050565b815167ffffffffffffffff811115610703576107036104df565b610717816107118454610665565b8461069d565b6020601f821160018114610749575f83156107325750848201515b5f19600385901b1c1916600184901b1784556106e1565b5f84815260208120601f198516915b828110156107785787850151825560209485019460019092019101610758565b508482101561079557868401515f19600387901b60f8161c191681555b50505050600190811b01905550565b80516001600160801b03811681146104da575f5ffd5b5f5f604083850312156107cb575f5ffd5b6107d4836107a4565b91506105ee602084016107a4565b634e487b7160e01b5f52601160045260245ffd5b81810381811115610809576108096107e2565b92915050565b8082028115828204841417610809576108096107e2565b5f8261084057634e487b7160e01b5f52601260045260245ffd5b50049056fea26469706673582212202a40f73b645d05e1f3e291eb87aab6b69f399a02148abb0425a2e69b402ca1e764736f6c634300081d0033a2646970667358221220d62c7ae78717171b515fb462399a16f911d86442e482370160b14428db32645964736f6c634300081d0033",
  "devdoc": {
    "author": "edsphinx",
    "details": "Each deployed adapter is preconfigured with a specific DIA key and registered with the provided aggregator.",
    "events": {
      "AdapterCreated(address,address,address,string)": {
        "params": {
          "adapter": "Address of the newly deployed adapter",
          "base": "Address of the base token",
          "key": "DIA key identifier used for price lookup (e.g. \"ETH/USD\")",
          "quote": "Address of the quote token"
        }
      }
    },
    "kind": "dev",
    "methods": {
      "constructor": {
        "params": {
          "_aggregator": "Address of the aggregator contract that implements `addOracle`",
          "_diaOracle": "Address of the DIA oracle contract"
        }
      },
      "deployAdapter(address,address,string)": {
        "details": "Only callable by the contract owner. Registers the adapter in the aggregator automatically.",
        "params": {
          "base": "Address of the base token (e.g. ETH)",
          "key": "DIA feed key string (e.g. \"ETH/USD\")",
          "quote": "Address of the quote token (e.g. USDC)"
        },
        "returns": {
          "_0": "adapter Address of the newly deployed DIAOracleAdapter"
        }
      }
    },
    "title": "DIAAdapterFactory",
    "version": 1
  },
  "userdoc": {
    "events": {
      "AdapterCreated(address,address,address,string)": {
        "notice": "Emitted when a new DIAOracleAdapter is deployed and registered"
      }
    },
    "kind": "user",
    "methods": {
      "aggregator()": {
        "notice": "Address of the oracle aggregator that supports `addOracle`"
      },
      "constructor": {
        "notice": "Deploys the factory and binds it to a DIA oracle and an oracle aggregator"
      },
      "deployAdapter(address,address,string)": {
        "notice": "Deploys a new DIAOracleAdapter for a specific base/quote pair and key, and registers it"
      },
      "dia()": {
        "notice": "Address of the DIA oracle contract (IDIAOracleV2)"
      },
      "owner()": {
        "notice": "Owner address with permission to deploy adapters"
      }
    },
    "notice": "Factory contract to deploy DIAOracleAdapter instances and register them with an oracle aggregator.",
    "version": 1
  },
  "storageLayout": {
    "storage": [],
    "types": null
  }
}