{
  "address": "0xE7fD65F31f6daB86593A89113a240827e561F574",
  "abi": [
    {
      "inputs": [
        {
          "internalType": "address",
          "name": "target",
          "type": "address"
        }
      ],
      "name": "AddressEmptyCode",
      "type": "error"
    },
    {
      "inputs": [
        {
          "internalType": "uint256",
          "name": "bps",
          "type": "uint256"
        }
      ],
      "name": "DeviationTooHigh",
      "type": "error"
    },
    {
      "inputs": [],
      "name": "DuplicateOracle",
      "type": "error"
    },
    {
      "inputs": [
        {
          "internalType": "address",
          "name": "implementation",
          "type": "address"
        }
      ],
      "name": "ERC1967InvalidImplementation",
      "type": "error"
    },
    {
      "inputs": [],
      "name": "ERC1967NonPayable",
      "type": "error"
    },
    {
      "inputs": [],
      "name": "FailedCall",
      "type": "error"
    },
    {
      "inputs": [],
      "name": "InvalidIndex",
      "type": "error"
    },
    {
      "inputs": [],
      "name": "InvalidInitialization",
      "type": "error"
    },
    {
      "inputs": [],
      "name": "InvalidPair",
      "type": "error"
    },
    {
      "inputs": [],
      "name": "NoData",
      "type": "error"
    },
    {
      "inputs": [],
      "name": "NoOracles",
      "type": "error"
    },
    {
      "inputs": [],
      "name": "NotInitializing",
      "type": "error"
    },
    {
      "inputs": [
        {
          "internalType": "address",
          "name": "owner",
          "type": "address"
        }
      ],
      "name": "OwnableInvalidOwner",
      "type": "error"
    },
    {
      "inputs": [
        {
          "internalType": "address",
          "name": "account",
          "type": "address"
        }
      ],
      "name": "OwnableUnauthorizedAccount",
      "type": "error"
    },
    {
      "inputs": [],
      "name": "UUPSUnauthorizedCallContext",
      "type": "error"
    },
    {
      "inputs": [
        {
          "internalType": "bytes32",
          "name": "slot",
          "type": "bytes32"
        }
      ],
      "name": "UUPSUnsupportedProxiableUUID",
      "type": "error"
    },
    {
      "inputs": [],
      "name": "ZeroAddress",
      "type": "error"
    },
    {
      "inputs": [],
      "name": "ZeroOracle",
      "type": "error"
    },
    {
      "inputs": [],
      "name": "ZeroQuote",
      "type": "error"
    },
    {
      "anonymous": false,
      "inputs": [
        {
          "indexed": true,
          "internalType": "address",
          "name": "to",
          "type": "address"
        },
        {
          "indexed": false,
          "internalType": "uint256",
          "name": "amount",
          "type": "uint256"
        }
      ],
      "name": "EthWithdrawn",
      "type": "event"
    },
    {
      "anonymous": false,
      "inputs": [
        {
          "indexed": false,
          "internalType": "uint64",
          "name": "version",
          "type": "uint64"
        }
      ],
      "name": "Initialized",
      "type": "event"
    },
    {
      "anonymous": false,
      "inputs": [
        {
          "indexed": false,
          "internalType": "uint256",
          "name": "previousBps",
          "type": "uint256"
        },
        {
          "indexed": false,
          "internalType": "uint256",
          "name": "newBps",
          "type": "uint256"
        }
      ],
      "name": "MaxDeviationUpdated",
      "type": "event"
    },
    {
      "anonymous": false,
      "inputs": [
        {
          "indexed": true,
          "internalType": "address",
          "name": "base",
          "type": "address"
        },
        {
          "indexed": true,
          "internalType": "address",
          "name": "quote",
          "type": "address"
        },
        {
          "indexed": false,
          "internalType": "address",
          "name": "oracle",
          "type": "address"
        }
      ],
      "name": "OracleAdded",
      "type": "event"
    },
    {
      "anonymous": false,
      "inputs": [
        {
          "indexed": true,
          "internalType": "address",
          "name": "base",
          "type": "address"
        },
        {
          "indexed": true,
          "internalType": "address",
          "name": "quote",
          "type": "address"
        },
        {
          "indexed": false,
          "internalType": "uint256",
          "name": "index",
          "type": "uint256"
        }
      ],
      "name": "OracleRemoved",
      "type": "event"
    },
    {
      "anonymous": false,
      "inputs": [
        {
          "indexed": true,
          "internalType": "address",
          "name": "base",
          "type": "address"
        },
        {
          "indexed": true,
          "internalType": "address",
          "name": "quote",
          "type": "address"
        },
        {
          "indexed": false,
          "internalType": "uint256",
          "name": "index",
          "type": "uint256"
        },
        {
          "indexed": false,
          "internalType": "bool",
          "name": "enabled",
          "type": "bool"
        }
      ],
      "name": "OracleToggled",
      "type": "event"
    },
    {
      "anonymous": false,
      "inputs": [
        {
          "indexed": true,
          "internalType": "address",
          "name": "base",
          "type": "address"
        },
        {
          "indexed": true,
          "internalType": "address",
          "name": "quote",
          "type": "address"
        },
        {
          "indexed": false,
          "internalType": "uint256",
          "name": "index",
          "type": "uint256"
        },
        {
          "indexed": false,
          "internalType": "address",
          "name": "oldOracle",
          "type": "address"
        },
        {
          "indexed": false,
          "internalType": "address",
          "name": "newOracle",
          "type": "address"
        }
      ],
      "name": "OracleUpdated",
      "type": "event"
    },
    {
      "anonymous": false,
      "inputs": [
        {
          "indexed": true,
          "internalType": "address",
          "name": "previousOwner",
          "type": "address"
        },
        {
          "indexed": true,
          "internalType": "address",
          "name": "newOwner",
          "type": "address"
        }
      ],
      "name": "OwnershipTransferred",
      "type": "event"
    },
    {
      "anonymous": false,
      "inputs": [
        {
          "indexed": true,
          "internalType": "address",
          "name": "base",
          "type": "address"
        },
        {
          "indexed": true,
          "internalType": "address",
          "name": "quote",
          "type": "address"
        },
        {
          "indexed": false,
          "internalType": "address",
          "name": "oracle",
          "type": "address"
        },
        {
          "indexed": false,
          "internalType": "uint256",
          "name": "inputAmount",
          "type": "uint256"
        },
        {
          "indexed": false,
          "internalType": "uint256",
          "name": "quoteValue",
          "type": "uint256"
        },
        {
          "indexed": false,
          "internalType": "uint256",
          "name": "referenceQuote",
          "type": "uint256"
        }
      ],
      "name": "QuoteDeviationRejected",
      "type": "event"
    },
    {
      "anonymous": false,
      "inputs": [
        {
          "indexed": true,
          "internalType": "address",
          "name": "base",
          "type": "address"
        },
        {
          "indexed": true,
          "internalType": "address",
          "name": "quote",
          "type": "address"
        },
        {
          "indexed": false,
          "internalType": "address",
          "name": "oracle",
          "type": "address"
        },
        {
          "indexed": false,
          "internalType": "uint256",
          "name": "inputAmount",
          "type": "uint256"
        },
        {
          "indexed": false,
          "internalType": "uint256",
          "name": "outputQuote",
          "type": "uint256"
        }
      ],
      "name": "QuoteUsed",
      "type": "event"
    },
    {
      "anonymous": false,
      "inputs": [
        {
          "indexed": false,
          "internalType": "address",
          "name": "previousForwarder",
          "type": "address"
        },
        {
          "indexed": false,
          "internalType": "address",
          "name": "newForwarder",
          "type": "address"
        }
      ],
      "name": "TrustedForwarderUpdated",
      "type": "event"
    },
    {
      "anonymous": false,
      "inputs": [
        {
          "indexed": true,
          "internalType": "address",
          "name": "implementation",
          "type": "address"
        }
      ],
      "name": "Upgraded",
      "type": "event"
    },
    {
      "inputs": [],
      "name": "UPGRADE_INTERFACE_VERSION",
      "outputs": [
        {
          "internalType": "string",
          "name": "",
          "type": "string"
        }
      ],
      "stateMutability": "view",
      "type": "function"
    },
    {
      "inputs": [
        {
          "internalType": "address",
          "name": "base",
          "type": "address"
        },
        {
          "internalType": "address",
          "name": "quote",
          "type": "address"
        },
        {
          "internalType": "address",
          "name": "oracle",
          "type": "address"
        }
      ],
      "name": "addOracle",
      "outputs": [],
      "stateMutability": "nonpayable",
      "type": "function"
    },
    {
      "inputs": [
        {
          "internalType": "uint256",
          "name": "amount",
          "type": "uint256"
        },
        {
          "internalType": "address",
          "name": "base",
          "type": "address"
        },
        {
          "internalType": "address",
          "name": "quote",
          "type": "address"
        }
      ],
      "name": "computeQuoteAverage",
      "outputs": [
        {
          "internalType": "uint256",
          "name": "",
          "type": "uint256"
        }
      ],
      "stateMutability": "view",
      "type": "function"
    },
    {
      "inputs": [
        {
          "internalType": "uint256",
          "name": "amount",
          "type": "uint256"
        },
        {
          "internalType": "address",
          "name": "base",
          "type": "address"
        },
        {
          "internalType": "address",
          "name": "quote",
          "type": "address"
        }
      ],
      "name": "computeQuoteMedian",
      "outputs": [
        {
          "internalType": "uint256",
          "name": "",
          "type": "uint256"
        }
      ],
      "stateMutability": "view",
      "type": "function"
    },
    {
      "inputs": [
        {
          "internalType": "address payable",
          "name": "to",
          "type": "address"
        }
      ],
      "name": "emergencyWithdrawEth",
      "outputs": [],
      "stateMutability": "nonpayable",
      "type": "function"
    },
    {
      "inputs": [
        {
          "internalType": "address",
          "name": "base",
          "type": "address"
        },
        {
          "internalType": "address",
          "name": "quote",
          "type": "address"
        }
      ],
      "name": "getOracles",
      "outputs": [
        {
          "components": [
            {
              "internalType": "address",
              "name": "oracleAddress",
              "type": "address"
            },
            {
              "internalType": "bool",
              "name": "enabled",
              "type": "bool"
            }
          ],
          "internalType": "struct MultiOracleAggregator.OracleInfo[]",
          "name": "",
          "type": "tuple[]"
        }
      ],
      "stateMutability": "view",
      "type": "function"
    },
    {
      "inputs": [
        {
          "internalType": "uint256",
          "name": "amount",
          "type": "uint256"
        },
        {
          "internalType": "address",
          "name": "base",
          "type": "address"
        },
        {
          "internalType": "address",
          "name": "quote",
          "type": "address"
        }
      ],
      "name": "getQuoteAverage",
      "outputs": [
        {
          "internalType": "uint256",
          "name": "",
          "type": "uint256"
        }
      ],
      "stateMutability": "nonpayable",
      "type": "function"
    },
    {
      "inputs": [
        {
          "internalType": "uint256",
          "name": "amount",
          "type": "uint256"
        },
        {
          "internalType": "address",
          "name": "base",
          "type": "address"
        },
        {
          "internalType": "address",
          "name": "quote",
          "type": "address"
        }
      ],
      "name": "getQuoteMedian",
      "outputs": [
        {
          "internalType": "uint256",
          "name": "",
          "type": "uint256"
        }
      ],
      "stateMutability": "nonpayable",
      "type": "function"
    },
    {
      "inputs": [
        {
          "internalType": "address",
          "name": "initialOwner",
          "type": "address"
        },
        {
          "internalType": "uint256",
          "name": "deviationBps",
          "type": "uint256"
        }
      ],
      "name": "initialize",
      "outputs": [],
      "stateMutability": "nonpayable",
      "type": "function"
    },
    {
      "inputs": [
        {
          "internalType": "address",
          "name": "forwarder",
          "type": "address"
        }
      ],
      "name": "isTrustedForwarder",
      "outputs": [
        {
          "internalType": "bool",
          "name": "",
          "type": "bool"
        }
      ],
      "stateMutability": "view",
      "type": "function"
    },
    {
      "inputs": [],
      "name": "maxDeviationBps",
      "outputs": [
        {
          "internalType": "uint256",
          "name": "",
          "type": "uint256"
        }
      ],
      "stateMutability": "view",
      "type": "function"
    },
    {
      "inputs": [
        {
          "internalType": "address",
          "name": "base",
          "type": "address"
        },
        {
          "internalType": "address",
          "name": "quote",
          "type": "address"
        }
      ],
      "name": "oracleCount",
      "outputs": [
        {
          "internalType": "uint256",
          "name": "",
          "type": "uint256"
        }
      ],
      "stateMutability": "view",
      "type": "function"
    },
    {
      "inputs": [],
      "name": "owner",
      "outputs": [
        {
          "internalType": "address",
          "name": "",
          "type": "address"
        }
      ],
      "stateMutability": "view",
      "type": "function"
    },
    {
      "inputs": [],
      "name": "proxiableUUID",
      "outputs": [
        {
          "internalType": "bytes32",
          "name": "",
          "type": "bytes32"
        }
      ],
      "stateMutability": "view",
      "type": "function"
    },
    {
      "inputs": [
        {
          "internalType": "address",
          "name": "base",
          "type": "address"
        },
        {
          "internalType": "address",
          "name": "quote",
          "type": "address"
        },
        {
          "internalType": "uint256",
          "name": "index",
          "type": "uint256"
        }
      ],
      "name": "removeOracle",
      "outputs": [],
      "stateMutability": "nonpayable",
      "type": "function"
    },
    {
      "inputs": [],
      "name": "renounceOwnership",
      "outputs": [],
      "stateMutability": "nonpayable",
      "type": "function"
    },
    {
      "inputs": [
        {
          "internalType": "uint256",
          "name": "bps",
          "type": "uint256"
        }
      ],
      "name": "setMaxDeviationBps",
      "outputs": [],
      "stateMutability": "nonpayable",
      "type": "function"
    },
    {
      "inputs": [
        {
          "internalType": "address",
          "name": "forwarder",
          "type": "address"
        }
      ],
      "name": "setTrustedForwarder",
      "outputs": [],
      "stateMutability": "nonpayable",
      "type": "function"
    },
    {
      "inputs": [
        {
          "internalType": "address",
          "name": "base",
          "type": "address"
        },
        {
          "internalType": "address",
          "name": "quote",
          "type": "address"
        },
        {
          "internalType": "uint256",
          "name": "index",
          "type": "uint256"
        },
        {
          "internalType": "bool",
          "name": "enabled",
          "type": "bool"
        }
      ],
      "name": "toggleOracle",
      "outputs": [],
      "stateMutability": "nonpayable",
      "type": "function"
    },
    {
      "inputs": [
        {
          "internalType": "address",
          "name": "newOwner",
          "type": "address"
        }
      ],
      "name": "transferOwnership",
      "outputs": [],
      "stateMutability": "nonpayable",
      "type": "function"
    },
    {
      "inputs": [
        {
          "internalType": "address",
          "name": "base",
          "type": "address"
        },
        {
          "internalType": "address",
          "name": "quote",
          "type": "address"
        },
        {
          "internalType": "uint256",
          "name": "index",
          "type": "uint256"
        },
        {
          "internalType": "address",
          "name": "newOracle",
          "type": "address"
        }
      ],
      "name": "updateOracle",
      "outputs": [],
      "stateMutability": "nonpayable",
      "type": "function"
    },
    {
      "inputs": [
        {
          "internalType": "address",
          "name": "newImplementation",
          "type": "address"
        },
        {
          "internalType": "bytes",
          "name": "data",
          "type": "bytes"
        }
      ],
      "name": "upgradeToAndCall",
      "outputs": [],
      "stateMutability": "payable",
      "type": "function"
    }
  ],
  "transactionHash": "0x2f1dbd2e6fe7c9f17b4a7b153b8a21cb506fae629b0b67f24bed9a915ee042c8",
  "args": [],
  "numDeployments": 1,
  "solcInputHash": "d4afba9f945680c4bdd2a263195f07fc",
  "bytecode": "0x60a0604052306080523480156012575f5ffd5b506080516127a26100395f395f8181611e6e01528181611e970152611fdb01526127a25ff3fe608060405260043610610131575f3560e01c80637c9a7853116100a8578063ad3cb1cc1161006d578063ad3cb1cc14610353578063cd6dc68714610390578063d22dec7c146103af578063d7dae84a146103ce578063da742228146103fa578063f2fde38b14610419575f5ffd5b80637c9a7853146102915780638068e42c146102b0578063870eea36146102cf5780638da5cb5b146102ee578063926eff9414610334575f5ffd5b806352d1902d116100f957806352d1902d146101cf57806353a57297146101e3578063572b6c05146102025780636cb73bc61461023f578063715018a61461025e5780637c74cb3414610272575f5ffd5b80630722a20d146101355780630bc4b220146101565780630ea7a112146101755780633ee7a701146101a75780634f1ef286146101bc575b5f5ffd5b348015610140575f5ffd5b5061015461014f366004612315565b610438565b005b348015610161575f5ffd5b50610154610170366004612365565b6105be565b348015610180575f5ffd5b5061019461018f3660046123ae565b61069e565b6040519081526020015b60405180910390f35b3480156101b2575f5ffd5b5061019460025481565b6101546101ca366004612401565b610a67565b3480156101da575f5ffd5b50610194610a86565b3480156101ee575f5ffd5b506101546101fd3660046124c4565b610aa1565b34801561020d575f5ffd5b5061022f61021c366004612502565b5f546001600160a01b0391821691161490565b604051901515815260200161019e565b34801561024a575f5ffd5b506101946102593660046123ae565b610bfa565b348015610269575f5ffd5b50610154610f21565b34801561027d575f5ffd5b5061015461028c36600461251d565b610f34565b34801561029c575f5ffd5b506101546102ab366004612502565b6110ea565b3480156102bb575f5ffd5b506101546102ca36600461254a565b61121e565b3480156102da575f5ffd5b506101946102e9366004612561565b611292565b3480156102f9575f5ffd5b507f9016d09d72d40fdae2fd8ceac6b6234c7706214fd39c1cd1e609a0528c199300546040516001600160a01b03909116815260200161019e565b34801561033f575f5ffd5b5061019461034e3660046123ae565b6112be565b34801561035e575f5ffd5b50610383604051806040016040528060058152602001640352e302e360dc1b81525081565b60405161019e9190612598565b34801561039b575f5ffd5b506101546103aa3660046125cd565b6115f3565b3480156103ba575f5ffd5b506101946103c93660046123ae565b611745565b3480156103d9575f5ffd5b506103ed6103e8366004612561565b611a1a565b60405161019e91906125f7565b348015610405575f5ffd5b50610154610414366004612502565b611ab3565b348015610424575f5ffd5b50610154610433366004612502565b611b14565b610440611b51565b6001600160a01b03811661046757604051636ab74eb360e11b815260040160405180910390fd5b6001600160a01b038085165f908152600160209081526040808320938716835292905220805483106104ac576040516363df817160e01b815260040160405180910390fd5b5f5b815481101561050d57826001600160a01b03168282815481106104d3576104d3612650565b5f918252602090912001546001600160a01b03160361050557604051635410d6e760e11b815260040160405180910390fd5b6001016104ae565b505f81848154811061052157610521612650565b5f9182526020909120015482546001600160a01b039091169150839083908690811061054f5761054f612650565b5f91825260209091200180546001600160a01b0319166001600160a01b03928316179055604051868216918816907f2b2cf0f1f837156898db06972250391421c04a652a40090aad4777f94b6ba83d906105ae90889086908990612664565b60405180910390a3505050505050565b6105c6611b51565b6001600160a01b038085165f9081526001602090815260408083209387168352929052208054831061060b576040516363df817160e01b815260040160405180910390fd5b8181848154811061061e5761061e612650565b905f5260205f20015f0160146101000a81548160ff021916908315150217905550836001600160a01b0316856001600160a01b03167f9d9a1d00585c0778506e9bc5213e2a88c24bc48cb12fb36b46964a1a293dfe9a858560405161068f9291909182521515602082015260400190565b60405180910390a35050505050565b6001600160a01b038083165f9081526001602090815260408083209385168352929052908120805482036106e557604051630d1c3ffd60e01b815260040160405180910390fd5b80545f906001600160401b03811115610700576107006123ed565b604051908082528060200260200182016040528015610729578160200160208202803683370190505b5082549091505f906001600160401b03811115610748576107486123ed565b604051908082528060200260200182016040528015610771578160200160208202803683370190505b5090505f805b845481101561095e5784818154811061079257610792612650565b5f91825260209091200154600160a01b900460ff1615610956578481815481106107be576107be612650565b5f91825260209091200154604051632b9a19db60e21b81526001600160a01b039091169063ae68676c906107fa908c908c908c90600401612664565b602060405180830381865afa925050508015610833575060408051601f3d908101601f1916820190925261083091810190612683565b60015b1561095657805f03610858576040516301a7e28b60e61b815260040160405180910390fd5b8085848151811061086b5761086b612650565b60200260200101818152505085828154811061088957610889612650565b5f9182526020909120015484516001600160a01b03909116908590859081106108b4576108b4612650565b6001600160a01b0390921660209283029190910190910152826108d6816126ae565b935050876001600160a01b0316896001600160a01b03167ff8505c29b85487e004976c82e24fd0124df5122af4f93c5b58f8665f01b6d70588858154811061092057610920612650565b5f9182526020918290200154604080516001600160a01b0390921682529181018f905290810185905260600160405180910390a3505b600101610777565b50805f0361097f5760405163175a3d1f60e31b815260040160405180910390fd5b5f816001600160401b03811115610998576109986123ed565b6040519080825280602002602001820160405280156109c1578160200160208202803683370190505b5090505f5b82811015610a0d578481815181106109e0576109e0612650565b60200260200101518282815181106109fa576109fa612650565b60209081029190910101526001016109c6565b505f610a1882611bce565b9050610a5885858560405180608001604052808e6001600160a01b031681526020018d6001600160a01b031681526020018f815260200186815250611cdb565b955050505050505b9392505050565b610a6f611e63565b610a7882611f07565b610a828282611f0f565b5050565b5f610a8f611fd0565b505f51602061274d5f395f51905f5290565b610aa9611b51565b6001600160a01b038084165f90815260016020908152604080832093861683529290522080548210610aee576040516363df817160e01b815260040160405180910390fd5b826001600160a01b0316846001600160a01b03167f1feaac000112470e14fe1e45816b1f03a9b394e65a021aeb38439974aa63097284604051610b3391815260200190565b60405180910390a380548190610b4b906001906126c6565b81548110610b5b57610b5b612650565b905f5260205f2001818381548110610b7557610b75612650565b5f91825260209091208254910180546001600160a01b039092166001600160a01b031983168117825592546001600160a81b0319909216909217600160a01b9182900460ff1615159091021790558054819080610bd457610bd46126d9565b5f8281526020902081015f1990810180546001600160a81b031916905501905550505050565b6001600160a01b038083165f908152600160209081526040808320938516835292905290812080548203610c4157604051630d1c3ffd60e01b815260040160405180910390fd5b80545f906001600160401b03811115610c5c57610c5c6123ed565b604051908082528060200260200182016040528015610c85578160200160208202803683370190505b5082549091505f906001600160401b03811115610ca457610ca46123ed565b604051908082528060200260200182016040528015610ccd578160200160208202803683370190505b5090505f805b8454811015610eba57848181548110610cee57610cee612650565b5f91825260209091200154600160a01b900460ff1615610eb257848181548110610d1a57610d1a612650565b5f91825260209091200154604051632b9a19db60e21b81526001600160a01b039091169063ae68676c90610d56908c908c908c90600401612664565b602060405180830381865afa925050508015610d8f575060408051601f3d908101601f19168201909252610d8c91810190612683565b60015b15610eb257805f03610db4576040516301a7e28b60e61b815260040160405180910390fd5b80858481518110610dc757610dc7612650565b602002602001018181525050858281548110610de557610de5612650565b5f9182526020909120015484516001600160a01b0390911690859085908110610e1057610e10612650565b6001600160a01b039092166020928302919091019091015282610e32816126ae565b935050876001600160a01b0316896001600160a01b03167ff8505c29b85487e004976c82e24fd0124df5122af4f93c5b58f8665f01b6d705888581548110610e7c57610e7c612650565b5f9182526020918290200154604080516001600160a01b0390921682529181018f905290810185905260600160405180910390a3505b600101610cd3565b50805f03610edb5760405163175a3d1f60e31b815260040160405180910390fd5b5f805b82811015610f1557848181518110610ef857610ef8612650565b602002602001015182610f0b91906126ed565b9150600101610ede565b505f610a188383612700565b610f29611b51565b610f325f612019565b565b610f3c611b51565b82826001600160a01b0382161580610f5b57506001600160a01b038116155b15610f795760405163d92e233d60e01b815260040160405180910390fd5b806001600160a01b0316826001600160a01b031603610fab57604051630793df6360e21b815260040160405180910390fd5b6001600160a01b038316610fd257604051636ab74eb360e11b815260040160405180910390fd5b6001600160a01b038086165f9081526001602090815260408083209388168352929052908120905b815481101561105957846001600160a01b031682828154811061101f5761101f612650565b5f918252602090912001546001600160a01b03160361105157604051635410d6e760e11b815260040160405180910390fd5b600101610ffa565b506040805180820182526001600160a01b0386811680835260016020808501828152875492830188555f888152829020955195909201805492511515600160a01b026001600160a81b03199093169585169590951791909117909355925192835287811692908916917fb4af261139740f02bdfd600c83590a7b42e71fd7798891b2b39cc7203e3de14791016105ae565b6110f2611b51565b6001600160a01b0381166111195760405163d92e233d60e01b815260040160405180910390fd5b47600181101561113c5760405163175a3d1f60e31b815260040160405180910390fd5b5f826001600160a01b0316826040515f6040518083038185875af1925050503d805f8114611185576040519150601f19603f3d011682016040523d82523d5f602084013e61118a565b606091505b50509050806111d65760405162461bcd60e51b8152602060048201526013602482015272115512081d1c985b9cd9995c8819985a5b1959606a1b60448201526064015b60405180910390fd5b826001600160a01b03167f8455ae6be5d92f1df1c3c1484388e247a36c7e60d72055ae216dbc258f257d4b8360405161121191815260200190565b60405180910390a2505050565b611226611b51565b61271081111561124c5760405163e1e67a0b60e01b8152600481018290526024016111cd565b600280549082905560408051828152602081018490527fea7b0359048504e79474eaaa05294b49265fc4e7b0a0c3737aaa22412e90f16e91015b60405180910390a15050565b6001600160a01b038083165f908152600160209081526040808320938516835292905220545b92915050565b6001600160a01b038083165f90815260016020908152604080832093851683529290529081208054820361130557604051630d1c3ffd60e01b815260040160405180910390fd5b80545f906001600160401b03811115611320576113206123ed565b604051908082528060200260200182016040528015611349578160200160208202803683370190505b5090505f805b83548110156114645783818154811061136a5761136a612650565b5f91825260209091200154600160a01b900460ff161561145c5783818154811061139657611396612650565b5f91825260209091200154604051632b9a19db60e21b81526001600160a01b039091169063ae68676c906113d2908b908b908b90600401612664565b602060405180830381865afa92505050801561140b575060408051601f3d908101601f1916820190925261140891810190612683565b60015b1561145c57805f03611430576040516301a7e28b60e61b815260040160405180910390fd5b80848461143c816126ae565b95508151811061144e5761144e612650565b602002602001018181525050505b60010161134f565b50805f036114855760405163175a3d1f60e31b815260040160405180910390fd5b5f816001600160401b0381111561149e5761149e6123ed565b6040519080825280602002602001820160405280156114c7578160200160208202803683370190505b5090505f5b82811015611513578381815181106114e6576114e6612650565b602002602001015182828151811061150057611500612650565b60209081029190910101526001016114cc565b505f61151e82611bce565b90505f5b838110156115e6575f8286838151811061153e5761153e612650565b6020026020010151116115755785828151811061155d5761155d612650565b60200260200101518361157091906126c6565b61159a565b8286838151811061158857611588612650565b602002602001015161159a91906126c6565b90505f836115aa8361271061271f565b6115b49190612700565b90506002548111156115dc5760405163e1e67a0b60e01b8152600481018290526024016111cd565b5050600101611522565b5098975050505050505050565b5f6115fc612089565b805490915060ff600160401b82041615906001600160401b03165f811580156116225750825b90505f826001600160401b0316600114801561163d5750303b155b90508115801561164b575080155b156116695760405163f92ee8a960e01b815260040160405180910390fd5b845467ffffffffffffffff19166001178555831561169357845460ff60401b1916600160401b1785555b6001600160a01b0387166116ba5760405163d92e233d60e01b815260040160405180910390fd5b6127108611156116e05760405163e1e67a0b60e01b8152600481018790526024016111cd565b6116e9876120b1565b6116f16120c2565b6002869055831561173c57845460ff60401b19168555604051600181527fc7f505b2f371ae2175ee4913f4499e1f2633a7b5936321eed1cdaeb6115181d29060200160405180910390a15b50505050505050565b6001600160a01b038083165f90815260016020908152604080832093851683529290529081208054820361178c57604051630d1c3ffd60e01b815260040160405180910390fd5b80545f906001600160401b038111156117a7576117a76123ed565b6040519080825280602002602001820160405280156117d0578160200160208202803683370190505b5090505f805b83548110156118eb578381815481106117f1576117f1612650565b5f91825260209091200154600160a01b900460ff16156118e35783818154811061181d5761181d612650565b5f91825260209091200154604051632b9a19db60e21b81526001600160a01b039091169063ae68676c90611859908b908b908b90600401612664565b602060405180830381865afa925050508015611892575060408051601f3d908101601f1916820190925261188f91810190612683565b60015b156118e357805f036118b7576040516301a7e28b60e61b815260040160405180910390fd5b8084846118c3816126ae565b9550815181106118d5576118d5612650565b602002602001018181525050505b6001016117d6565b50805f0361190c5760405163175a3d1f60e31b815260040160405180910390fd5b5f805b828110156119465783818151811061192957611929612650565b60200260200101518261193c91906126ed565b915060010161190f565b505f6119528383612700565b90505f5b838110156115e6575f8286838151811061197257611972612650565b6020026020010151116119a95785828151811061199157611991612650565b6020026020010151836119a491906126c6565b6119ce565b828683815181106119bc576119bc612650565b60200260200101516119ce91906126c6565b90505f836119de8361271061271f565b6119e89190612700565b9050600254811115611a105760405163e1e67a0b60e01b8152600481018290526024016111cd565b5050600101611956565b6001600160a01b038083165f9081526001602090815260408083209385168352928152828220805484518184028101840190955280855260609493919290919084015b82821015611aa7575f84815260209081902060408051808201909152908401546001600160a01b0381168252600160a01b900460ff16151581830152825260019092019101611a5d565b50505050905092915050565b611abb611b51565b5f80546001600160a01b038381166001600160a01b031983168117909355604080519190921680825260208201939093527f06710129fbc2650f48c82631edcea255e102cd5e17c444deb7273855cfb5e77d9101611286565b611b1c611b51565b6001600160a01b038116611b4557604051631e4fbdf760e01b81525f60048201526024016111cd565b611b4e81612019565b50565b611b596120ca565b6001600160a01b0316611b937f9016d09d72d40fdae2fd8ceac6b6234c7706214fd39c1cd1e609a0528c199300546001600160a01b031690565b6001600160a01b031614610f3257611ba96120ca565b60405163118cdaa760e01b81526001600160a01b0390911660048201526024016111cd565b5f805b8251811015611cac575f611be68260016126ed565b90505b8351811015611ca357838281518110611c0457611c04612650565b6020026020010151848281518110611c1e57611c1e612650565b60200260200101511015611c9b57838181518110611c3e57611c3e612650565b6020026020010151848381518110611c5857611c58612650565b6020026020010151858481518110611c7257611c72612650565b60200260200101868481518110611c8b57611c8b612650565b6020908102919091010191909152525b600101611be9565b50600101611bd1565b508160028351611cbc9190612700565b81518110611ccc57611ccc612650565b60200260200101519050919050565b5f5b82811015611e5c575f8260600151868381518110611cfd57611cfd612650565b602002602001015111611d3857858281518110611d1c57611d1c612650565b60200260200101518360600151611d3391906126c6565b611d61565b8260600151868381518110611d4f57611d4f612650565b6020026020010151611d6191906126c6565b90505f836060015182612710611d77919061271f565b611d819190612700565b9050600254811115611e525783602001516001600160a01b0316845f01516001600160a01b03167f8b1b9d1b268d03930c763773b0f87ebe8d66cfb9eb2ede0142c48538af8cafd0888681518110611ddb57611ddb612650565b602002602001015187604001518b8881518110611dfa57611dfa612650565b6020908102919091018101516060808c0151604080516001600160a01b039097168752938601949094529184015282015260800160405180910390a360405163e1e67a0b60e01b8152600481018290526024016111cd565b5050600101611cdd565b5050505050565b306001600160a01b037f0000000000000000000000000000000000000000000000000000000000000000161480611ee957507f00000000000000000000000000000000000000000000000000000000000000006001600160a01b0316611edd5f51602061274d5f395f51905f52546001600160a01b031690565b6001600160a01b031614155b15610f325760405163703e46dd60e11b815260040160405180910390fd5b611b4e611b51565b816001600160a01b03166352d1902d6040518163ffffffff1660e01b8152600401602060405180830381865afa925050508015611f69575060408051601f3d908101601f19168201909252611f6691810190612683565b60015b611f9157604051634c9c8ce360e01b81526001600160a01b03831660048201526024016111cd565b5f51602061274d5f395f51905f528114611fc157604051632a87526960e21b8152600481018290526024016111cd565b611fcb83836120ee565b505050565b306001600160a01b037f00000000000000000000000000000000000000000000000000000000000000001614610f325760405163703e46dd60e11b815260040160405180910390fd5b7f9016d09d72d40fdae2fd8ceac6b6234c7706214fd39c1cd1e609a0528c19930080546001600160a01b031981166001600160a01b03848116918217845560405192169182907f8be0079c531659141344cd1fd0a4f28419497f9722a3daafe3b4186f6b6457e0905f90a3505050565b5f807ff0c57e16840df040f15088dc2f81fe391c3923bec73e23a9662efc9c229c6a006112b8565b6120b9612143565b611b4e81612168565b610f32612143565b5f80546001600160a01b031633036120e9575060131936013560601c90565b503390565b6120f782612170565b6040516001600160a01b038316907fbc7cd75a20ee27fd9adebab32041f755214dbc6bffa90cc0225b39da2e5c2d3b905f90a280511561213b57611fcb82826121d3565b610a82612245565b61214b612264565b610f3257604051631afcd79f60e31b815260040160405180910390fd5b611b1c612143565b806001600160a01b03163b5f036121a557604051634c9c8ce360e01b81526001600160a01b03821660048201526024016111cd565b5f51602061274d5f395f51905f5280546001600160a01b0319166001600160a01b0392909216919091179055565b60605f5f846001600160a01b0316846040516121ef9190612736565b5f60405180830381855af49150503d805f8114612227576040519150601f19603f3d011682016040523d82523d5f602084013e61222c565b606091505b509150915061223c85838361227d565b95945050505050565b3415610f325760405163b398979f60e01b815260040160405180910390fd5b5f61226d612089565b54600160401b900460ff16919050565b6060826122925761228d826122d9565b610a60565b81511580156122a957506001600160a01b0384163b155b156122d257604051639996b31560e01b81526001600160a01b03851660048201526024016111cd565b5080610a60565b8051156122e857805160208201fd5b60405163d6bda27560e01b815260040160405180910390fd5b6001600160a01b0381168114611b4e575f5ffd5b5f5f5f5f60808587031215612328575f5ffd5b843561233381612301565b9350602085013561234381612301565b925060408501359150606085013561235a81612301565b939692955090935050565b5f5f5f5f60808587031215612378575f5ffd5b843561238381612301565b9350602085013561239381612301565b9250604085013591506060850135801515811461235a575f5ffd5b5f5f5f606084860312156123c0575f5ffd5b8335925060208401356123d281612301565b915060408401356123e281612301565b809150509250925092565b634e487b7160e01b5f52604160045260245ffd5b5f5f60408385031215612412575f5ffd5b823561241d81612301565b915060208301356001600160401b03811115612437575f5ffd5b8301601f81018513612447575f5ffd5b80356001600160401b03811115612460576124606123ed565b604051601f8201601f19908116603f011681016001600160401b038111828210171561248e5761248e6123ed565b6040528181528282016020018710156124a5575f5ffd5b816020840160208301375f602083830101528093505050509250929050565b5f5f5f606084860312156124d6575f5ffd5b83356124e181612301565b925060208401356124f181612301565b929592945050506040919091013590565b5f60208284031215612512575f5ffd5b8135610a6081612301565b5f5f5f6060848603121561252f575f5ffd5b833561253a81612301565b925060208401356123d281612301565b5f6020828403121561255a575f5ffd5b5035919050565b5f5f60408385031215612572575f5ffd5b823561257d81612301565b9150602083013561258d81612301565b809150509250929050565b602081525f82518060208401528060208501604085015e5f604082850101526040601f19601f83011684010191505092915050565b5f5f604083850312156125de575f5ffd5b82356125e981612301565b946020939093013593505050565b602080825282518282018190525f918401906040840190835b8181101561264557835180516001600160a01b0316845260209081015115158185015290930192604090920191600101612610565b509095945050505050565b634e487b7160e01b5f52603260045260245ffd5b9283526001600160a01b03918216602084015216604082015260600190565b5f60208284031215612693575f5ffd5b5051919050565b634e487b7160e01b5f52601160045260245ffd5b5f600182016126bf576126bf61269a565b5060010190565b818103818111156112b8576112b861269a565b634e487b7160e01b5f52603160045260245ffd5b808201808211156112b8576112b861269a565b5f8261271a57634e487b7160e01b5f52601260045260245ffd5b500490565b80820281158282048414176112b8576112b861269a565b5f82518060208501845e5f92019182525091905056fe360894a13ba1a3210667c828492db98dca3e2076cc3735a920a3ca505d382bbca2646970667358221220d645607ca1c55c6f3ea0dcc1d633f39988dc9dda490147f7e5bcb5b07869f93364736f6c634300081d0033",
  "devdoc": {
    "author": "edsphinx",
    "details": "Ensure all adapters return 1e18-scaled quotes. Emits events for tracing and deviation validation.",
    "errors": {
      "AddressEmptyCode(address)": [
        {
          "details": "There's no code at `target` (it is not a contract)."
        }
      ],
      "ERC1967InvalidImplementation(address)": [
        {
          "details": "The `implementation` of the proxy is invalid."
        }
      ],
      "ERC1967NonPayable()": [
        {
          "details": "An upgrade function sees `msg.value > 0` that may be lost."
        }
      ],
      "FailedCall()": [
        {
          "details": "A call to an address target failed. The target may have reverted."
        }
      ],
      "InvalidInitialization()": [
        {
          "details": "The contract is already initialized."
        }
      ],
      "NotInitializing()": [
        {
          "details": "The contract is not initializing."
        }
      ],
      "OwnableInvalidOwner(address)": [
        {
          "details": "The owner is not a valid owner account. (eg. `address(0)`)"
        }
      ],
      "OwnableUnauthorizedAccount(address)": [
        {
          "details": "The caller account is not authorized to perform an operation."
        }
      ],
      "UUPSUnauthorizedCallContext()": [
        {
          "details": "The call is from an unauthorized context."
        }
      ],
      "UUPSUnsupportedProxiableUUID(bytes32)": [
        {
          "details": "The storage `slot` is unsupported as a UUID."
        }
      ]
    },
    "events": {
      "Initialized(uint64)": {
        "details": "Triggered when the contract has been initialized or reinitialized."
      },
      "Upgraded(address)": {
        "details": "Emitted when the implementation is upgraded."
      }
    },
    "kind": "dev",
    "methods": {
      "addOracle(address,address,address)": {
        "custom:security": "onlyOwner",
        "params": {
          "base": "Token being priced",
          "oracle": "Oracle address",
          "quote": "Reference token"
        }
      },
      "computeQuoteAverage(uint256,address,address)": {
        "params": {
          "amount": "Input amount",
          "base": "Token being priced",
          "quote": "Reference token"
        },
        "returns": {
          "_0": "Quote in reference token"
        }
      },
      "computeQuoteMedian(uint256,address,address)": {
        "params": {
          "amount": "Input amount",
          "base": "Token being priced",
          "quote": "Reference token"
        },
        "returns": {
          "_0": "Quote in reference token"
        }
      },
      "emergencyWithdrawEth(address)": {
        "custom:security": "onlyOwner",
        "details": "This contract is not designed to hold ETH. This function exists      to recover any ETH accidentally sent to it.",
        "params": {
          "to": "Recipient address"
        }
      },
      "getOracles(address,address)": {
        "params": {
          "base": "Token being priced",
          "quote": "Reference token"
        },
        "returns": {
          "_0": "Array of OracleInfo structs"
        }
      },
      "getQuoteAverage(uint256,address,address)": {
        "params": {
          "amount": "Input amount",
          "base": "Token being priced",
          "quote": "Reference token"
        },
        "returns": {
          "_0": "Quote in reference token"
        }
      },
      "getQuoteMedian(uint256,address,address)": {
        "params": {
          "amount": "Input amount",
          "base": "Token being priced",
          "quote": "Reference token"
        },
        "returns": {
          "_0": "Quote in reference token"
        }
      },
      "initialize(address,uint256)": {
        "params": {
          "deviationBps": "Max allowed deviation in basis points",
          "initialOwner": "The owner to set"
        }
      },
      "isTrustedForwarder(address)": {
        "custom:security": "ERC2771ContextUpgradeable"
      },
      "oracleCount(address,address)": {
        "params": {
          "base": "Token being priced",
          "quote": "Reference token"
        },
        "returns": {
          "_0": "Number of registered oracles"
        }
      },
      "owner()": {
        "details": "Returns the address of the current owner."
      },
      "proxiableUUID()": {
        "details": "Implementation of the ERC-1822 {proxiableUUID} function. This returns the storage slot used by the implementation. It is used to validate the implementation's compatibility when performing an upgrade. IMPORTANT: A proxy pointing at a proxiable contract should not be considered proxiable itself, because this risks bricking a proxy that upgrades to it, by delegating to itself until out of gas. Thus it is critical that this function revert if invoked through a proxy. This is guaranteed by the `notDelegated` modifier."
      },
      "removeOracle(address,address,uint256)": {
        "custom:security": "onlyOwner",
        "params": {
          "base": "Token being priced",
          "index": "Oracle index",
          "quote": "Reference token"
        }
      },
      "renounceOwnership()": {
        "details": "Leaves the contract without owner. It will not be possible to call `onlyOwner` functions. Can only be called by the current owner. NOTE: Renouncing ownership will leave the contract without an owner, thereby disabling any functionality that is only available to the owner."
      },
      "setMaxDeviationBps(uint256)": {
        "custom:security": "onlyOwner",
        "params": {
          "bps": "Deviation in basis points"
        }
      },
      "setTrustedForwarder(address)": {
        "custom:security": "onlyOwner",
        "params": {
          "forwarder": "Address of the trusted forwarder"
        }
      },
      "toggleOracle(address,address,uint256,bool)": {
        "custom:security": "onlyOwner",
        "params": {
          "base": "Token being priced",
          "enabled": "True to enable, false to disable",
          "index": "Oracle index",
          "quote": "Reference token"
        }
      },
      "transferOwnership(address)": {
        "details": "Transfers ownership of the contract to a new account (`newOwner`). Can only be called by the current owner."
      },
      "updateOracle(address,address,uint256,address)": {
        "custom:security": "onlyOwner",
        "params": {
          "base": "Token being priced",
          "index": "Oracle index",
          "newOracle": "New oracle address",
          "quote": "Reference token"
        }
      },
      "upgradeToAndCall(address,bytes)": {
        "custom:oz-upgrades-unsafe-allow-reachable": "delegatecall",
        "details": "Upgrade the implementation of the proxy to `newImplementation`, and subsequently execute the function call encoded in `data`. Calls {_authorizeUpgrade}. Emits an {Upgraded} event."
      }
    },
    "stateVariables": {
      "_oracles": {
        "details": "Slither false positive: mappings are initialized to empty by default in Solidity"
      }
    },
    "title": "MultiOracleAggregator (UUPS Upgradeable + Trusted Forwarder Compatible)",
    "version": 1
  },
  "userdoc": {
    "events": {
      "EthWithdrawn(address,uint256)": {
        "notice": "Emitted when ETH is withdrawn from the contract"
      },
      "MaxDeviationUpdated(uint256,uint256)": {
        "notice": "Emitted when the maximum deviation is updated"
      },
      "OracleAdded(address,address,address)": {
        "notice": "Emitted when a new oracle is added to a pair"
      },
      "OracleRemoved(address,address,uint256)": {
        "notice": "Emitted when an oracle is removed by index"
      },
      "OracleToggled(address,address,uint256,bool)": {
        "notice": "Emitted when an oracle is toggled (enabled/disabled)"
      },
      "OracleUpdated(address,address,uint256,address,address)": {
        "notice": "Emitted when an oracle is updated"
      },
      "QuoteDeviationRejected(address,address,address,uint256,uint256,uint256)": {
        "notice": "Emitted when a quote is rejected due to deviation"
      },
      "QuoteUsed(address,address,address,uint256,uint256)": {
        "notice": "Emitted when a quote is successfully used"
      },
      "TrustedForwarderUpdated(address,address)": {
        "notice": "Emitted when the trusted forwarder is updated"
      }
    },
    "kind": "user",
    "methods": {
      "addOracle(address,address,address)": {
        "notice": "Adds an oracle for a base/quote pair"
      },
      "computeQuoteAverage(uint256,address,address)": {
        "notice": "Returns average quote after filtering as view"
      },
      "computeQuoteMedian(uint256,address,address)": {
        "notice": "Returns median quote after filtering as view"
      },
      "emergencyWithdrawEth(address)": {
        "notice": "Withdraws any ETH accidentally sent to this contract"
      },
      "getOracles(address,address)": {
        "notice": "Returns list of registered oracles for a pair"
      },
      "getQuoteAverage(uint256,address,address)": {
        "notice": "Returns average quote after filtering"
      },
      "getQuoteMedian(uint256,address,address)": {
        "notice": "Returns median quote after filtering"
      },
      "initialize(address,uint256)": {
        "notice": "Initializes the contract with the owner and deviation settings"
      },
      "maxDeviationBps()": {
        "notice": "Allowed maximum deviation (in basis points)"
      },
      "oracleCount(address,address)": {
        "notice": "Returns the number of oracles for a pair"
      },
      "removeOracle(address,address,uint256)": {
        "notice": "Removes an oracle from a pair by index"
      },
      "setMaxDeviationBps(uint256)": {
        "notice": "Sets the maximum deviation allowed between quotes"
      },
      "setTrustedForwarder(address)": {
        "notice": "Sets the trusted forwarder for meta-transactions"
      },
      "toggleOracle(address,address,uint256,bool)": {
        "notice": "Enables or disables an oracle"
      },
      "updateOracle(address,address,uint256,address)": {
        "notice": "Replaces an existing oracle"
      }
    },
    "notice": "Aggregates multiple oracle feeds and provides average/median pricing with full traceability.",
    "version": 1
  },
  "storageLayout": {
    "storage": [
      {
        "astId": 20912,
        "contract": "contracts/oracles/MultiOracleAggregator.sol:MultiOracleAggregator",
        "label": "_trustedForwarder",
        "offset": 0,
        "slot": "0",
        "type": "t_address"
      },
      {
        "astId": 20937,
        "contract": "contracts/oracles/MultiOracleAggregator.sol:MultiOracleAggregator",
        "label": "_oracles",
        "offset": 0,
        "slot": "1",
        "type": "t_mapping(t_address,t_mapping(t_address,t_array(t_struct(OracleInfo)20918_storage)dyn_storage))"
      },
      {
        "astId": 20940,
        "contract": "contracts/oracles/MultiOracleAggregator.sol:MultiOracleAggregator",
        "label": "maxDeviationBps",
        "offset": 0,
        "slot": "2",
        "type": "t_uint256"
      }
    ],
    "types": {
      "t_address": {
        "encoding": "inplace",
        "label": "address",
        "numberOfBytes": "20"
      },
      "t_array(t_struct(OracleInfo)20918_storage)dyn_storage": {
        "base": "t_struct(OracleInfo)20918_storage",
        "encoding": "dynamic_array",
        "label": "struct MultiOracleAggregator.OracleInfo[]",
        "numberOfBytes": "32"
      },
      "t_bool": {
        "encoding": "inplace",
        "label": "bool",
        "numberOfBytes": "1"
      },
      "t_mapping(t_address,t_array(t_struct(OracleInfo)20918_storage)dyn_storage)": {
        "encoding": "mapping",
        "key": "t_address",
        "label": "mapping(address => struct MultiOracleAggregator.OracleInfo[])",
        "numberOfBytes": "32",
        "value": "t_array(t_struct(OracleInfo)20918_storage)dyn_storage"
      },
      "t_mapping(t_address,t_mapping(t_address,t_array(t_struct(OracleInfo)20918_storage)dyn_storage))": {
        "encoding": "mapping",
        "key": "t_address",
        "label": "mapping(address => mapping(address => struct MultiOracleAggregator.OracleInfo[]))",
        "numberOfBytes": "32",
        "value": "t_mapping(t_address,t_array(t_struct(OracleInfo)20918_storage)dyn_storage)"
      },
      "t_struct(OracleInfo)20918_storage": {
        "encoding": "inplace",
        "label": "struct MultiOracleAggregator.OracleInfo",
        "members": [
          {
            "astId": 20915,
            "contract": "contracts/oracles/MultiOracleAggregator.sol:MultiOracleAggregator",
            "label": "oracleAddress",
            "offset": 0,
            "slot": "0",
            "type": "t_address"
          },
          {
            "astId": 20917,
            "contract": "contracts/oracles/MultiOracleAggregator.sol:MultiOracleAggregator",
            "label": "enabled",
            "offset": 20,
            "slot": "0",
            "type": "t_bool"
          }
        ],
        "numberOfBytes": "32"
      },
      "t_uint256": {
        "encoding": "inplace",
        "label": "uint256",
        "numberOfBytes": "32"
      }
    }
  }
}